{
  "_format": "hh-sol-artifact-1",
  "contractName": "Certificate",
  "sourceName": "contracts/Certificate.sol",
  "abi": [
    {
      "inputs": [
        {
          "internalType": "string",
          "name": "_name",
          "type": "string"
        },
        {
          "internalType": "string",
          "name": "_symbol",
          "type": "string"
        },
        {
          "internalType": "string",
          "name": "_artist",
          "type": "string"
        },
        {
          "internalType": "string",
          "name": "_title",
          "type": "string"
        },
        {
          "internalType": "string",
          "name": "_URI",
          "type": "string"
        },
        {
          "internalType": "uint256",
          "name": "_year",
          "type": "uint256"
        }
      ],
      "stateMutability": "nonpayable",
      "type": "constructor"
    },
    {
      "anonymous": false,
      "inputs": [
        {
          "indexed": true,
          "internalType": "address",
          "name": "owner",
          "type": "address"
        },
        {
          "indexed": true,
          "internalType": "address",
          "name": "approved",
          "type": "address"
        },
        {
          "indexed": true,
          "internalType": "uint256",
          "name": "tokenId",
          "type": "uint256"
        }
      ],
      "name": "Approval",
      "type": "event"
    },
    {
      "anonymous": false,
      "inputs": [
        {
          "indexed": true,
          "internalType": "address",
          "name": "owner",
          "type": "address"
        },
        {
          "indexed": true,
          "internalType": "address",
          "name": "operator",
          "type": "address"
        },
        {
          "indexed": false,
          "internalType": "bool",
          "name": "approved",
          "type": "bool"
        }
      ],
      "name": "ApprovalForAll",
      "type": "event"
    },
    {
      "anonymous": false,
      "inputs": [
        {
          "indexed": true,
          "internalType": "address",
          "name": "",
          "type": "address"
        }
      ],
      "name": "CertificateMint",
      "type": "event"
    },
    {
      "anonymous": false,
      "inputs": [
        {
          "indexed": true,
          "internalType": "address",
          "name": "from",
          "type": "address"
        },
        {
          "indexed": true,
          "internalType": "address",
          "name": "to",
          "type": "address"
        },
        {
          "indexed": true,
          "internalType": "uint256",
          "name": "tokenId",
          "type": "uint256"
        }
      ],
      "name": "Transfer",
      "type": "event"
    },
    {
      "inputs": [
        {
          "internalType": "address",
          "name": "to",
          "type": "address"
        },
        {
          "internalType": "uint256",
          "name": "tokenId",
          "type": "uint256"
        }
      ],
      "name": "approve",
      "outputs": [],
      "stateMutability": "nonpayable",
      "type": "function"
    },
    {
      "inputs": [
        {
          "internalType": "address",
          "name": "owner",
          "type": "address"
        }
      ],
      "name": "balanceOf",
      "outputs": [
        {
          "internalType": "uint256",
          "name": "",
          "type": "uint256"
        }
      ],
      "stateMutability": "view",
      "type": "function"
    },
    {
      "inputs": [
        {
          "internalType": "uint256",
          "name": "tokenId",
          "type": "uint256"
        }
      ],
      "name": "getApproved",
      "outputs": [
        {
          "internalType": "address",
          "name": "",
          "type": "address"
        }
      ],
      "stateMutability": "view",
      "type": "function"
    },
    {
      "inputs": [
        {
          "internalType": "address",
          "name": "owner",
          "type": "address"
        },
        {
          "internalType": "address",
          "name": "operator",
          "type": "address"
        }
      ],
      "name": "isApprovedForAll",
      "outputs": [
        {
          "internalType": "bool",
          "name": "",
          "type": "bool"
        }
      ],
      "stateMutability": "view",
      "type": "function"
    },
    {
      "inputs": [],
      "name": "mintNewToken",
      "outputs": [],
      "stateMutability": "nonpayable",
      "type": "function"
    },
    {
      "inputs": [],
      "name": "name",
      "outputs": [
        {
          "internalType": "string",
          "name": "",
          "type": "string"
        }
      ],
      "stateMutability": "view",
      "type": "function"
    },
    {
      "inputs": [
        {
          "internalType": "uint256",
          "name": "tokenId",
          "type": "uint256"
        }
      ],
      "name": "ownerOf",
      "outputs": [
        {
          "internalType": "address",
          "name": "",
          "type": "address"
        }
      ],
      "stateMutability": "view",
      "type": "function"
    },
    {
      "inputs": [
        {
          "internalType": "address",
          "name": "from",
          "type": "address"
        },
        {
          "internalType": "address",
          "name": "to",
          "type": "address"
        },
        {
          "internalType": "uint256",
          "name": "tokenId",
          "type": "uint256"
        }
      ],
      "name": "safeTransferFrom",
      "outputs": [],
      "stateMutability": "nonpayable",
      "type": "function"
    },
    {
      "inputs": [
        {
          "internalType": "address",
          "name": "from",
          "type": "address"
        },
        {
          "internalType": "address",
          "name": "to",
          "type": "address"
        },
        {
          "internalType": "uint256",
          "name": "tokenId",
          "type": "uint256"
        },
        {
          "internalType": "bytes",
          "name": "data",
          "type": "bytes"
        }
      ],
      "name": "safeTransferFrom",
      "outputs": [],
      "stateMutability": "nonpayable",
      "type": "function"
    },
    {
      "inputs": [
        {
          "internalType": "address",
          "name": "operator",
          "type": "address"
        },
        {
          "internalType": "bool",
          "name": "approved",
          "type": "bool"
        }
      ],
      "name": "setApprovalForAll",
      "outputs": [],
      "stateMutability": "nonpayable",
      "type": "function"
    },
    {
      "inputs": [
        {
          "internalType": "bytes4",
          "name": "interfaceId",
          "type": "bytes4"
        }
      ],
      "name": "supportsInterface",
      "outputs": [
        {
          "internalType": "bool",
          "name": "",
          "type": "bool"
        }
      ],
      "stateMutability": "view",
      "type": "function"
    },
    {
      "inputs": [],
      "name": "symbol",
      "outputs": [
        {
          "internalType": "string",
          "name": "",
          "type": "string"
        }
      ],
      "stateMutability": "view",
      "type": "function"
    },
    {
      "inputs": [
        {
          "internalType": "uint256",
          "name": "tokenId",
          "type": "uint256"
        }
      ],
      "name": "tokenURI",
      "outputs": [
        {
          "internalType": "string",
          "name": "",
          "type": "string"
        }
      ],
      "stateMutability": "view",
      "type": "function"
    },
    {
      "inputs": [
        {
          "internalType": "address",
          "name": "from",
          "type": "address"
        },
        {
          "internalType": "address",
          "name": "to",
          "type": "address"
        },
        {
          "internalType": "uint256",
          "name": "tokenId",
          "type": "uint256"
        }
      ],
      "name": "transferFrom",
      "outputs": [],
      "stateMutability": "nonpayable",
      "type": "function"
    }
  ],
  "bytecode": "0x60806040523480156200001157600080fd5b5060405162002dd838038062002dd8833981810160405281019062000037919062000353565b8585816000908051906020019062000051929190620000cb565b5080600190805190602001906200006a929190620000cb565b505050836008908051906020019062000085929190620000cb565b5082600990805190602001906200009e929190620000cb565b5080600a8190555081600b9080519060200190620000be929190620000cb565b50505050505050620004ef565b828054620000d990620004b9565b90600052602060002090601f016020900481019282620000fd576000855562000149565b82601f106200011857805160ff191683800117855562000149565b8280016001018555821562000149579182015b82811115620001485782518255916020019190600101906200012b565b5b5090506200015891906200015c565b5090565b5b80821115620001775760008160009055506001016200015d565b5090565b6000604051905090565b600080fd5b600080fd5b600080fd5b600080fd5b6000601f19601f8301169050919050565b7f4e487b7100000000000000000000000000000000000000000000000000000000600052604160045260246000fd5b620001e48262000199565b810181811067ffffffffffffffff82111715620002065762000205620001aa565b5b80604052505050565b60006200021b6200017b565b9050620002298282620001d9565b919050565b600067ffffffffffffffff8211156200024c576200024b620001aa565b5b620002578262000199565b9050602081019050919050565b60005b838110156200028457808201518184015260208101905062000267565b8381111562000294576000848401525b50505050565b6000620002b1620002ab846200022e565b6200020f565b905082815260208101848484011115620002d057620002cf62000194565b5b620002dd84828562000264565b509392505050565b600082601f830112620002fd57620002fc6200018f565b5b81516200030f8482602086016200029a565b91505092915050565b6000819050919050565b6200032d8162000318565b81146200033957600080fd5b50565b6000815190506200034d8162000322565b92915050565b60008060008060008060c0878903121562000373576200037262000185565b5b600087015167ffffffffffffffff8111156200039457620003936200018a565b5b620003a289828a01620002e5565b965050602087015167ffffffffffffffff811115620003c657620003c56200018a565b5b620003d489828a01620002e5565b955050604087015167ffffffffffffffff811115620003f857620003f76200018a565b5b6200040689828a01620002e5565b945050606087015167ffffffffffffffff8111156200042a57620004296200018a565b5b6200043889828a01620002e5565b935050608087015167ffffffffffffffff8111156200045c576200045b6200018a565b5b6200046a89828a01620002e5565b92505060a06200047d89828a016200033c565b9150509295509295509295565b7f4e487b7100000000000000000000000000000000000000000000000000000000600052602260045260246000fd5b60006002820490506001821680620004d257607f821691505b60208210811415620004e957620004e86200048a565b5b50919050565b6128d980620004ff6000396000f3fe608060405234801561001057600080fd5b50600436106100ea5760003560e01c806370a082311161008c578063a22cb46511610066578063a22cb46514610249578063b88d4fde14610265578063c87b56dd14610281578063e985e9c5146102b1576100ea565b806370a08231146101f157806374f104791461022157806395d89b411461022b576100ea565b8063095ea7b3116100c8578063095ea7b31461016d57806323b872dd1461018957806342842e0e146101a55780636352211e146101c1576100ea565b806301ffc9a7146100ef57806306fdde031461011f578063081812fc1461013d575b600080fd5b6101096004803603810190610104919061193a565b6102e1565b6040516101169190611982565b60405180910390f35b6101276103c3565b6040516101349190611a36565b60405180910390f35b61015760048036038101906101529190611a8e565b610455565b6040516101649190611afc565b60405180910390f35b61018760048036038101906101829190611b43565b61049b565b005b6101a3600480360381019061019e9190611b83565b6105b3565b005b6101bf60048036038101906101ba9190611b83565b610613565b005b6101db60048036038101906101d69190611a8e565b610633565b6040516101e89190611afc565b60405180910390f35b61020b60048036038101906102069190611bd6565b6106e5565b6040516102189190611c12565b60405180910390f35b61022961079d565b005b6102336108e1565b6040516102409190611a36565b60405180910390f35b610263600480360381019061025e9190611c59565b610973565b005b61027f600480360381019061027a9190611dce565b610989565b005b61029b60048036038101906102969190611a8e565b6109eb565b6040516102a89190611a36565b60405180910390f35b6102cb60048036038101906102c69190611e51565b610afe565b6040516102d89190611982565b60405180910390f35b60007f80ac58cd000000000000000000000000000000000000000000000000000000007bffffffffffffffffffffffffffffffffffffffffffffffffffffffff1916827bffffffffffffffffffffffffffffffffffffffffffffffffffffffff191614806103ac57507f5b5e139f000000000000000000000000000000000000000000000000000000007bffffffffffffffffffffffffffffffffffffffffffffffffffffffff1916827bffffffffffffffffffffffffffffffffffffffffffffffffffffffff1916145b806103bc57506103bb82610b92565b5b9050919050565b6060600080546103d290611ec0565b80601f01602080910402602001604051908101604052809291908181526020018280546103fe90611ec0565b801561044b5780601f106104205761010080835404028352916020019161044b565b820191906000526020600020905b81548152906001019060200180831161042e57829003601f168201915b5050505050905090565b600061046082610bfc565b6004600083815260200190815260200160002060009054906101000a900473ffffffffffffffffffffffffffffffffffffffff169050919050565b60006104a682610633565b90508073ffffffffffffffffffffffffffffffffffffffff168373ffffffffffffffffffffffffffffffffffffffff161415610517576040517f08c379a000000000000000000000000000000000000000000000000000000000815260040161050e90611f64565b60405180910390fd5b8073ffffffffffffffffffffffffffffffffffffffff16610536610c47565b73ffffffffffffffffffffffffffffffffffffffff16148061056557506105648161055f610c47565b610afe565b5b6105a4576040517f08c379a000000000000000000000000000000000000000000000000000000000815260040161059b90611ff6565b60405180910390fd5b6105ae8383610c4f565b505050565b6105c46105be610c47565b82610d08565b610603576040517f08c379a00000000000000000000000000000000000000000000000000000000081526004016105fa90612088565b60405180910390fd5b61060e838383610d9d565b505050565b61062e83838360405180602001604052806000815250610989565b505050565b6000806002600084815260200190815260200160002060009054906101000a900473ffffffffffffffffffffffffffffffffffffffff169050600073ffffffffffffffffffffffffffffffffffffffff168173ffffffffffffffffffffffffffffffffffffffff1614156106dc576040517f08c379a00000000000000000000000000000000000000000000000000000000081526004016106d3906120f4565b60405180910390fd5b80915050919050565b60008073ffffffffffffffffffffffffffffffffffffffff168273ffffffffffffffffffffffffffffffffffffffff161415610756576040517f08c379a000000000000000000000000000000000000000000000000000000000815260040161074d90612186565b60405180910390fd5b600360008373ffffffffffffffffffffffffffffffffffffffff1673ffffffffffffffffffffffffffffffffffffffff168152602001908152602001600020549050919050565b6001600754106107e2576040517f08c379a00000000000000000000000000000000000000000000000000000000081526004016107d9906121f2565b60405180910390fd5b600760008154809291906107f590612241565b919050555061080633600754611004565b61089c600754600b805461081990611ec0565b80601f016020809104026020016040519081016040528092919081815260200182805461084590611ec0565b80156108925780601f1061086757610100808354040283529160200191610892565b820191906000526020600020905b81548152906001019060200180831161087557829003601f168201915b50505050506111de565b3373ffffffffffffffffffffffffffffffffffffffff167f28eec586400e19a9401792c90a010def5792552e099940ddb0dc02dc0af4a27860405160405180910390a2565b6060600180546108f090611ec0565b80601f016020809104026020016040519081016040528092919081815260200182805461091c90611ec0565b80156109695780601f1061093e57610100808354040283529160200191610969565b820191906000526020600020905b81548152906001019060200180831161094c57829003601f168201915b5050505050905090565b61098561097e610c47565b8383611252565b5050565b61099a610994610c47565b83610d08565b6109d9576040517f08c379a00000000000000000000000000000000000000000000000000000000081526004016109d090612088565b60405180910390fd5b6109e5848484846113bf565b50505050565b60606109f682610bfc565b6000600660008481526020019081526020016000208054610a1690611ec0565b80601f0160208091040260200160405190810160405280929190818152602001828054610a4290611ec0565b8015610a8f5780601f10610a6457610100808354040283529160200191610a8f565b820191906000526020600020905b815481529060010190602001808311610a7257829003601f168201915b505050505090506000610aa061141b565b9050600081511415610ab6578192505050610af9565b600082511115610aeb578082604051602001610ad39291906122c6565b60405160208183030381529060405292505050610af9565b610af484611432565b925050505b919050565b6000600560008473ffffffffffffffffffffffffffffffffffffffff1673ffffffffffffffffffffffffffffffffffffffff16815260200190815260200160002060008373ffffffffffffffffffffffffffffffffffffffff1673ffffffffffffffffffffffffffffffffffffffff16815260200190815260200160002060009054906101000a900460ff16905092915050565b60007f01ffc9a7000000000000000000000000000000000000000000000000000000007bffffffffffffffffffffffffffffffffffffffffffffffffffffffff1916827bffffffffffffffffffffffffffffffffffffffffffffffffffffffff1916149050919050565b610c058161149a565b610c44576040517f08c379a0000000000000000000000000000000000000000000000000000000008152600401610c3b906120f4565b60405180910390fd5b50565b600033905090565b816004600083815260200190815260200160002060006101000a81548173ffffffffffffffffffffffffffffffffffffffff021916908373ffffffffffffffffffffffffffffffffffffffff160217905550808273ffffffffffffffffffffffffffffffffffffffff16610cc283610633565b73ffffffffffffffffffffffffffffffffffffffff167f8c5be1e5ebec7d5bd14f71427d1e84f3dd0314c0f7b2291e5b200ac8c7c3b92560405160405180910390a45050565b600080610d1483610633565b90508073ffffffffffffffffffffffffffffffffffffffff168473ffffffffffffffffffffffffffffffffffffffff161480610d565750610d558185610afe565b5b80610d9457508373ffffffffffffffffffffffffffffffffffffffff16610d7c84610455565b73ffffffffffffffffffffffffffffffffffffffff16145b91505092915050565b8273ffffffffffffffffffffffffffffffffffffffff16610dbd82610633565b73ffffffffffffffffffffffffffffffffffffffff1614610e13576040517f08c379a0000000000000000000000000000000000000000000000000000000008152600401610e0a9061235c565b60405180910390fd5b600073ffffffffffffffffffffffffffffffffffffffff168273ffffffffffffffffffffffffffffffffffffffff161415610e83576040517f08c379a0000000000000000000000000000000000000000000000000000000008152600401610e7a906123ee565b60405180910390fd5b610e8e838383611506565b610e99600082610c4f565b6001600360008573ffffffffffffffffffffffffffffffffffffffff1673ffffffffffffffffffffffffffffffffffffffff1681526020019081526020016000206000828254610ee9919061240e565b925050819055506001600360008473ffffffffffffffffffffffffffffffffffffffff1673ffffffffffffffffffffffffffffffffffffffff1681526020019081526020016000206000828254610f409190612442565b92505081905550816002600083815260200190815260200160002060006101000a81548173ffffffffffffffffffffffffffffffffffffffff021916908373ffffffffffffffffffffffffffffffffffffffff160217905550808273ffffffffffffffffffffffffffffffffffffffff168473ffffffffffffffffffffffffffffffffffffffff167fddf252ad1be2c89b69c2b068fc378daa952ba7f163c4a11628f55a4df523b3ef60405160405180910390a4610fff83838361150b565b505050565b600073ffffffffffffffffffffffffffffffffffffffff168273ffffffffffffffffffffffffffffffffffffffff161415611074576040517f08c379a000000000000000000000000000000000000000000000000000000000815260040161106b906124e4565b60405180910390fd5b61107d8161149a565b156110bd576040517f08c379a00000000000000000000000000000000000000000000000000000000081526004016110b490612550565b60405180910390fd5b6110c960008383611506565b6001600360008473ffffffffffffffffffffffffffffffffffffffff1673ffffffffffffffffffffffffffffffffffffffff16815260200190815260200160002060008282546111199190612442565b92505081905550816002600083815260200190815260200160002060006101000a81548173ffffffffffffffffffffffffffffffffffffffff021916908373ffffffffffffffffffffffffffffffffffffffff160217905550808273ffffffffffffffffffffffffffffffffffffffff16600073ffffffffffffffffffffffffffffffffffffffff167fddf252ad1be2c89b69c2b068fc378daa952ba7f163c4a11628f55a4df523b3ef60405160405180910390a46111da6000838361150b565b5050565b6111e78261149a565b611226576040517f08c379a000000000000000000000000000000000000000000000000000000000815260040161121d906125e2565b60405180910390fd5b8060066000848152602001908152602001600020908051906020019061124d92919061182b565b505050565b8173ffffffffffffffffffffffffffffffffffffffff168373ffffffffffffffffffffffffffffffffffffffff1614156112c1576040517f08c379a00000000000000000000000000000000000000000000000000000000081526004016112b89061264e565b60405180910390fd5b80600560008573ffffffffffffffffffffffffffffffffffffffff1673ffffffffffffffffffffffffffffffffffffffff16815260200190815260200160002060008473ffffffffffffffffffffffffffffffffffffffff1673ffffffffffffffffffffffffffffffffffffffff16815260200190815260200160002060006101000a81548160ff0219169083151502179055508173ffffffffffffffffffffffffffffffffffffffff168373ffffffffffffffffffffffffffffffffffffffff167f17307eab39ab6107e8899845ad3d59bd9653f200f220920489ca2b5937696c31836040516113b29190611982565b60405180910390a3505050565b6113ca848484610d9d565b6113d684848484611510565b611415576040517f08c379a000000000000000000000000000000000000000000000000000000000815260040161140c906126e0565b60405180910390fd5b50505050565b606060405180602001604052806000815250905090565b606061143d82610bfc565b600061144761141b565b905060008151116114675760405180602001604052806000815250611492565b80611471846116a7565b6040516020016114829291906122c6565b6040516020818303038152906040525b915050919050565b60008073ffffffffffffffffffffffffffffffffffffffff166002600084815260200190815260200160002060009054906101000a900473ffffffffffffffffffffffffffffffffffffffff1673ffffffffffffffffffffffffffffffffffffffff1614159050919050565b505050565b505050565b60006115318473ffffffffffffffffffffffffffffffffffffffff16611808565b1561169a578373ffffffffffffffffffffffffffffffffffffffff1663150b7a0261155a610c47565b8786866040518563ffffffff1660e01b815260040161157c9493929190612755565b602060405180830381600087803b15801561159657600080fd5b505af19250505080156115c757506040513d601f19601f820116820180604052508101906115c491906127b6565b60015b61164a573d80600081146115f7576040519150601f19603f3d011682016040523d82523d6000602084013e6115fc565b606091505b50600081511415611642576040517f08c379a0000000000000000000000000000000000000000000000000000000008152600401611639906126e0565b60405180910390fd5b805181602001fd5b63150b7a0260e01b7bffffffffffffffffffffffffffffffffffffffffffffffffffffffff1916817bffffffffffffffffffffffffffffffffffffffffffffffffffffffff19161491505061169f565b600190505b949350505050565b606060008214156116ef576040518060400160405280600181526020017f30000000000000000000000000000000000000000000000000000000000000008152509050611803565b600082905060005b6000821461172157808061170a90612241565b915050600a8261171a9190612812565b91506116f7565b60008167ffffffffffffffff81111561173d5761173c611ca3565b5b6040519080825280601f01601f19166020018201604052801561176f5781602001600182028036833780820191505090505b5090505b600085146117fc57600182611788919061240e565b9150600a856117979190612843565b60306117a39190612442565b60f81b8183815181106117b9576117b8612874565b5b60200101907effffffffffffffffffffffffffffffffffffffffffffffffffffffffffffff1916908160001a905350600a856117f59190612812565b9450611773565b8093505050505b919050565b6000808273ffffffffffffffffffffffffffffffffffffffff163b119050919050565b82805461183790611ec0565b90600052602060002090601f01602090048101928261185957600085556118a0565b82601f1061187257805160ff19168380011785556118a0565b828001600101855582156118a0579182015b8281111561189f578251825591602001919060010190611884565b5b5090506118ad91906118b1565b5090565b5b808211156118ca5760008160009055506001016118b2565b5090565b6000604051905090565b600080fd5b600080fd5b60007fffffffff0000000000000000000000000000000000000000000000000000000082169050919050565b611917816118e2565b811461192257600080fd5b50565b6000813590506119348161190e565b92915050565b6000602082840312156119505761194f6118d8565b5b600061195e84828501611925565b91505092915050565b60008115159050919050565b61197c81611967565b82525050565b60006020820190506119976000830184611973565b92915050565b600081519050919050565b600082825260208201905092915050565b60005b838110156119d75780820151818401526020810190506119bc565b838111156119e6576000848401525b50505050565b6000601f19601f8301169050919050565b6000611a088261199d565b611a1281856119a8565b9350611a228185602086016119b9565b611a2b816119ec565b840191505092915050565b60006020820190508181036000830152611a5081846119fd565b905092915050565b6000819050919050565b611a6b81611a58565b8114611a7657600080fd5b50565b600081359050611a8881611a62565b92915050565b600060208284031215611aa457611aa36118d8565b5b6000611ab284828501611a79565b91505092915050565b600073ffffffffffffffffffffffffffffffffffffffff82169050919050565b6000611ae682611abb565b9050919050565b611af681611adb565b82525050565b6000602082019050611b116000830184611aed565b92915050565b611b2081611adb565b8114611b2b57600080fd5b50565b600081359050611b3d81611b17565b92915050565b60008060408385031215611b5a57611b596118d8565b5b6000611b6885828601611b2e565b9250506020611b7985828601611a79565b9150509250929050565b600080600060608486031215611b9c57611b9b6118d8565b5b6000611baa86828701611b2e565b9350506020611bbb86828701611b2e565b9250506040611bcc86828701611a79565b9150509250925092565b600060208284031215611bec57611beb6118d8565b5b6000611bfa84828501611b2e565b91505092915050565b611c0c81611a58565b82525050565b6000602082019050611c276000830184611c03565b92915050565b611c3681611967565b8114611c4157600080fd5b50565b600081359050611c5381611c2d565b92915050565b60008060408385031215611c7057611c6f6118d8565b5b6000611c7e85828601611b2e565b9250506020611c8f85828601611c44565b9150509250929050565b600080fd5b600080fd5b7f4e487b7100000000000000000000000000000000000000000000000000000000600052604160045260246000fd5b611cdb826119ec565b810181811067ffffffffffffffff82111715611cfa57611cf9611ca3565b5b80604052505050565b6000611d0d6118ce565b9050611d198282611cd2565b919050565b600067ffffffffffffffff821115611d3957611d38611ca3565b5b611d42826119ec565b9050602081019050919050565b82818337600083830152505050565b6000611d71611d6c84611d1e565b611d03565b905082815260208101848484011115611d8d57611d8c611c9e565b5b611d98848285611d4f565b509392505050565b600082601f830112611db557611db4611c99565b5b8135611dc5848260208601611d5e565b91505092915050565b60008060008060808587031215611de857611de76118d8565b5b6000611df687828801611b2e565b9450506020611e0787828801611b2e565b9350506040611e1887828801611a79565b925050606085013567ffffffffffffffff811115611e3957611e386118dd565b5b611e4587828801611da0565b91505092959194509250565b60008060408385031215611e6857611e676118d8565b5b6000611e7685828601611b2e565b9250506020611e8785828601611b2e565b9150509250929050565b7f4e487b7100000000000000000000000000000000000000000000000000000000600052602260045260246000fd5b60006002820490506001821680611ed857607f821691505b60208210811415611eec57611eeb611e91565b5b50919050565b7f4552433732313a20617070726f76616c20746f2063757272656e74206f776e6560008201527f7200000000000000000000000000000000000000000000000000000000000000602082015250565b6000611f4e6021836119a8565b9150611f5982611ef2565b604082019050919050565b60006020820190508181036000830152611f7d81611f41565b9050919050565b7f4552433732313a20617070726f76652063616c6c6572206973206e6f7420746f60008201527f6b656e206f776e6572206e6f7220617070726f76656420666f7220616c6c0000602082015250565b6000611fe0603e836119a8565b9150611feb82611f84565b604082019050919050565b6000602082019050818103600083015261200f81611fd3565b9050919050565b7f4552433732313a2063616c6c6572206973206e6f7420746f6b656e206f776e6560008201527f72206e6f7220617070726f766564000000000000000000000000000000000000602082015250565b6000612072602e836119a8565b915061207d82612016565b604082019050919050565b600060208201905081810360008301526120a181612065565b9050919050565b7f4552433732313a20696e76616c696420746f6b656e2049440000000000000000600082015250565b60006120de6018836119a8565b91506120e9826120a8565b602082019050919050565b6000602082019050818103600083015261210d816120d1565b9050919050565b7f4552433732313a2061646472657373207a65726f206973206e6f74206120766160008201527f6c6964206f776e65720000000000000000000000000000000000000000000000602082015250565b60006121706029836119a8565b915061217b82612114565b604082019050919050565b6000602082019050818103600083015261219f81612163565b9050919050565b7f20416c7265616479206d696e7465640000000000000000000000000000000000600082015250565b60006121dc600f836119a8565b91506121e7826121a6565b602082019050919050565b6000602082019050818103600083015261220b816121cf565b9050919050565b7f4e487b7100000000000000000000000000000000000000000000000000000000600052601160045260246000fd5b600061224c82611a58565b91507fffffffffffffffffffffffffffffffffffffffffffffffffffffffffffffffff82141561227f5761227e612212565b5b600182019050919050565b600081905092915050565b60006122a08261199d565b6122aa818561228a565b93506122ba8185602086016119b9565b80840191505092915050565b60006122d28285612295565b91506122de8284612295565b91508190509392505050565b7f4552433732313a207472616e736665722066726f6d20696e636f72726563742060008201527f6f776e6572000000000000000000000000000000000000000000000000000000602082015250565b60006123466025836119a8565b9150612351826122ea565b604082019050919050565b6000602082019050818103600083015261237581612339565b9050919050565b7f4552433732313a207472616e7366657220746f20746865207a65726f2061646460008201527f7265737300000000000000000000000000000000000000000000000000000000602082015250565b60006123d86024836119a8565b91506123e38261237c565b604082019050919050565b60006020820190508181036000830152612407816123cb565b9050919050565b600061241982611a58565b915061242483611a58565b92508282101561243757612436612212565b5b828203905092915050565b600061244d82611a58565b915061245883611a58565b9250827fffffffffffffffffffffffffffffffffffffffffffffffffffffffffffffffff0382111561248d5761248c612212565b5b828201905092915050565b7f4552433732313a206d696e7420746f20746865207a65726f2061646472657373600082015250565b60006124ce6020836119a8565b91506124d982612498565b602082019050919050565b600060208201905081810360008301526124fd816124c1565b9050919050565b7f4552433732313a20746f6b656e20616c7265616479206d696e74656400000000600082015250565b600061253a601c836119a8565b915061254582612504565b602082019050919050565b600060208201905081810360008301526125698161252d565b9050919050565b7f45524337323155524953746f726167653a2055524920736574206f66206e6f6e60008201527f6578697374656e7420746f6b656e000000000000000000000000000000000000602082015250565b60006125cc602e836119a8565b91506125d782612570565b604082019050919050565b600060208201905081810360008301526125fb816125bf565b9050919050565b7f4552433732313a20617070726f766520746f2063616c6c657200000000000000600082015250565b60006126386019836119a8565b915061264382612602565b602082019050919050565b600060208201905081810360008301526126678161262b565b9050919050565b7f4552433732313a207472616e7366657220746f206e6f6e20455243373231526560008201527f63656976657220696d706c656d656e7465720000000000000000000000000000602082015250565b60006126ca6032836119a8565b91506126d58261266e565b604082019050919050565b600060208201905081810360008301526126f9816126bd565b9050919050565b600081519050919050565b600082825260208201905092915050565b600061272782612700565b612731818561270b565b93506127418185602086016119b9565b61274a816119ec565b840191505092915050565b600060808201905061276a6000830187611aed565b6127776020830186611aed565b6127846040830185611c03565b8181036060830152612796818461271c565b905095945050505050565b6000815190506127b08161190e565b92915050565b6000602082840312156127cc576127cb6118d8565b5b60006127da848285016127a1565b91505092915050565b7f4e487b7100000000000000000000000000000000000000000000000000000000600052601260045260246000fd5b600061281d82611a58565b915061282883611a58565b925082612838576128376127e3565b5b828204905092915050565b600061284e82611a58565b915061285983611a58565b925082612869576128686127e3565b5b828206905092915050565b7f4e487b7100000000000000000000000000000000000000000000000000000000600052603260045260246000fdfea2646970667358221220fc34107df1f08bcce55ac20a55fcf486b08a2e07b2cebea8b3e56c2331df762164736f6c63430008090033",
  "linkReferences": {},
  "deployedLinkReferences": {}
}